{
    "_format": "hh-sol-artifact-1",
    "contractName": "PriceConsumer",
    "sourceName": "contracts/PriceConsumer.sol",
    "abi": [
        {
            "inputs": [
                {
                    "internalType": "address",
                    "name": "_priceFeed",
                    "type": "address"
                }
            ],
            "stateMutability": "nonpayable",
            "type": "constructor"
        },
        {
            "inputs": [],
            "name": "getDecimals",
            "outputs": [
                {
                    "internalType": "uint8",
                    "name": "",
                    "type": "uint8"
                }
            ],
            "stateMutability": "view",
            "type": "function"
        },
        {
            "inputs": [],
            "name": "getLatestPrice",
            "outputs": [
                {
                    "internalType": "int256",
                    "name": "",
                    "type": "int256"
                }
            ],
            "stateMutability": "view",
            "type": "function"
        }
    ],
    "bytecode": "0x608060405234801561001057600080fd5b506040516104e23803806104e2833981810160405281019061003291906100db565b806000806101000a81548173ffffffffffffffffffffffffffffffffffffffff021916908373ffffffffffffffffffffffffffffffffffffffff16021790555050610108565b600080fd5b600073ffffffffffffffffffffffffffffffffffffffff82169050919050565b60006100a88261007d565b9050919050565b6100b88161009d565b81146100c357600080fd5b50565b6000815190506100d5816100af565b92915050565b6000602082840312156100f1576100f0610078565b5b60006100ff848285016100c6565b91505092915050565b6103cb806101176000396000f3fe608060405234801561001057600080fd5b50600436106100365760003560e01c80638e15f4731461003b578063f0141d8414610059575b600080fd5b610043610077565b60405161005091906101c6565b60405180910390f35b610061610116565b60405161006e91906101fd565b60405180910390f35b60008060008054906101000a900473ffffffffffffffffffffffffffffffffffffffff1673ffffffffffffffffffffffffffffffffffffffff1663feaf968c6040518163ffffffff1660e01b815260040160a060405180830381865afa1580156100e5573d6000803e3d6000fd5b505050506040513d601f19601f8201168201806040525081019061010991906102c1565b5050509150508091505090565b60008060009054906101000a900473ffffffffffffffffffffffffffffffffffffffff1673ffffffffffffffffffffffffffffffffffffffff1663313ce5676040518163ffffffff1660e01b8152600401602060405180830381865afa158015610184573d6000803e3d6000fd5b505050506040513d601f19601f820116820180604052508101906101a89190610368565b905090565b6000819050919050565b6101c0816101ad565b82525050565b60006020820190506101db60008301846101b7565b92915050565b600060ff82169050919050565b6101f7816101e1565b82525050565b600060208201905061021260008301846101ee565b92915050565b600080fd5b600069ffffffffffffffffffff82169050919050565b61023c8161021d565b811461024757600080fd5b50565b60008151905061025981610233565b92915050565b610268816101ad565b811461027357600080fd5b50565b6000815190506102858161025f565b92915050565b6000819050919050565b61029e8161028b565b81146102a957600080fd5b50565b6000815190506102bb81610295565b92915050565b600080600080600060a086880312156102dd576102dc610218565b5b60006102eb8882890161024a565b95505060206102fc88828901610276565b945050604061030d888289016102ac565b935050606061031e888289016102ac565b925050608061032f8882890161024a565b9150509295509295909350565b610345816101e1565b811461035057600080fd5b50565b6000815190506103628161033c565b92915050565b60006020828403121561037e5761037d610218565b5b600061038c84828501610353565b9150509291505056fea264697066735822122012a50db7e50b6285ee95c269212dd8bb83b63c26f2694608c4dd4c7d25a356f564736f6c634300081c0033",
    "linkReferences": {},
    "deployedLinkReferences": {}
}